:100000000C942A000C9447000C9447000C94470071
:100010000C9447000C9447000C9447000C94470044
:100020000C9447000C9447000C9447000C94470034
:100030000C9447000C9447000C9447000C94470024
:100040000C9447000C9447000C9447000C94470014
:100050000C94470011241FBECFE5D4E0DEBFCDBF16
:1000600011E0A0E6B0E0ECE2FCE002C005900D92E9
:10007000AE31B107D9F711E0AEE1B1E001C01D9298
:10008000A532B107E1F70E94E5010C9414060C9427
:1000900000008FE589B988E08AB911B881E480B998
:1000A00008951F93182F8A3029F48DE060E070E0E6
:1000B0000E9451005D9BFECF1CB980E090E01F9133
:1000C0000895FA019770990F592F506A20911E01D7
:1000D00030E0A4EA44E8916A3F5F393C61F0A6BF92
:1000E00006B607FEFDCF21B1287F203149F0283325
:1000F000B1F3283029F020931E012FEF3FEF62C0AB
:1001000053B946BF06B607FEFDCF21B1287F203286
:1001100019F3283321F3283161F583B946BF06B6B8
:1001200007FEFDCF21B1287F2033F1F02833B9F24B
:100130002832F9F4A6BF06B607FEFDCF21B1287F0D
:10014000203121F0283359F2283099F493B946BF71
:1001500006B607FEFDCF21B1287F203469F0283490
:1001600019F0283331F4BBCF20931E0120E030E09A
:1001700027C020931E0116C020931E0194EC20E09E
:1001800030E01BC06130710509F494E896BF06B6F3
:1001900007FEFDCF81B1887F80931E01803539F045
:1001A000883519F02FEF3FEF0BC060E070E083B1AE
:1001B00081932F5F3F4F615070401616170614F35E
:1001C00084E986BFC9010895FA01680F791F9C016F
:1001D00027606217730718F0B9016F5F7F4F392FDF
:1001E0003770330F306A20911E0140E0A4EA54E8D2
:1001F0004F5F493C61F0A6BF06B607FEFDCF21B1B7
:10020000287F203149F02833B1F3283029F020939A
:100210001E012FEF3FEF45C033B956BF06B607FEAC
:10022000FDCF21B1287F203219F3283321F3283163
:1002300099F483B956BF06B607FEFDCF21B1287FDA
:10024000203329F02833B9F2283231F408C0209342
:100250001E0120E030E023C020931E0114C0209333
:100260001E01681B790B20E030E044E812C0808159
:1002700083B946BF06B607FEFDCF81B1887F809364
:100280001E01883219F02FEF3FEF09C031962F5F22
:100290003F4FCB01821B930B1816190644F384E9D8
:1002A00086BFC90108956F927F928F929F92AF92FD
:1002B000BF92CF92DF92EF92FF920F931F93CF9353
:1002C000DF935C018B016A01EE24FF2490E6692E26
:1002D00090E0792E86E8882E80E0982E8DB79EB724
:1002E00008970FB6F8949EBF0FBE8DBFEDB7FEB74F
:1002F0003196ADB7BEB712967C926E921197B382CB
:10030000A28215830483D782C6820E944203EDB77E
:10031000FEB738960FB6F894FEBF0FBEEDBFC5010D
:10032000B801A6010E94E400EC0100D000D0ADB7F6
:10033000BEB712969C928E92119714969C938E93B0
:1003400013970E9442030F900F900F900F90BFEFF2
:10035000CF3FDB0761F00C1B1D0BEC0EFD1E1016D2
:10036000110644F4AC0EBD1ECC0EDD1EB7CFEE243C
:10037000EA94FE2CC701DF91CF911F910F91FF905E
:10038000EF90DF90CF90BF90AF909F908F907F9035
:100390006F90089500D000D0EDB7FEB731968EE88B
:1003A00090E0ADB7BEB712969C938E931197809153
:1003B0001E01828313820E9442030F900F900F90C0
:1003C0000F9080E090E00E9414064F925F926F922F
:1003D0007F928F929F92AF92BF92CF92DF92FF92C5
:1003E0000F931F93DF93CF93CDB7DEB760970FB610
:1003F000F894DEBF0FBECDBF8FE589B988E08AB91A
:1004000011B881E480B98FE091E09093220180934C
:100410002101CC24DD2475EA472E70E0572E5E01C1
:100420000894A11CB11C6DEA662E60E0762E55EC96
:10043000852E50E0952E00D000D0EDB7FEB7528249
:100440004182D482C3820E9442030F900F900F908A
:100450000F90C60160E170E0A5010E9461008C016F
:100460001816190614F00E94CA010031110574F41F
:1004700000D000D0EDB7FEB772826182148303838F
:100480000E9442030F900F900F900F90C00ED11E4C
:10049000FF2417C000D000D02DB73EB72F5F3F4FCD
:1004A000EDB7FEB792828182AA0DBB1D8C91F90136
:1004B000828313820E944203F3940F900F900F9057
:1004C0000F90AF2DB0E0A017B10724F36091210188
:1004D000709122018AE090E00E941603FFEFCF1690
:1004E000D10409F008F4A7CF87E390E06CE270E054
:1004F0004BEC50E00E9453018C0197FF02C00E9418
:10050000CA0100D000D088EF90E0EDB7FEB792832B
:100510008183148303830E944203CC24DD240F9043
:100520000F900F900F9045EA442E40E0542E5E014C
:100530000894A11CB11C3DEA632E30E0732E25EC1B
:10054000822E20E0922E00D000D0EDB7FEB752826E
:100550004182D482C3820E9442030F900F900F9079
:100560000F90C60160E170E0A5010E9461008C015E
:100570001816190614F00E94CA010031110574F40E
:1005800000D000D0EDB7FEB772826182148303837E
:100590000E9442030F900F900F900F90C00ED11E3B
:1005A000FF2417C000D000D02DB73EB72F5F3F4FBC
:1005B000EDB7FEB792828182AA0DBB1D8C91F90125
:1005C000828313820E944203F3940F900F900F9046
:1005D0000F90AF2DB0E0A017B10724F36091210177
:1005E000709122018AE090E00E941603FFEFCF167F
:1005F000D10409F008F4A7CF89E091E00E945703E5
:1006000060960FB6F894DEBF0FBECDBFCF91DF91DD
:100610001F910F91FF90DF90CF90BF90AF909F9070
:100620008F907F906F905F904F9008950F931F93DE
:10063000CF93DF938C01EB018B8181FF1BC082FF85
:100640000DC02E813F818C819D812817390764F46C
:10065000E881F9810193F983E88306C0E885F9858B
:10066000802F0995892B31F48E819F8101969F837C
:100670008E8302C00FEF1FEFC801DF91CF911F9152
:100680000F910895A0E0B0E0E8E4F3E00C94ED05EC
:10069000FE01359661917191809121019091220125
:1006A000AF010E948C032096E2E00C9409060F93A0
:1006B0001F93CF93DF938C01E0912101F0912201F0
:1006C000838181FF21C0C0E0D0E00DC0E091210115
:1006D000F091220120853185BF01F9010995892B0F
:1006E00011F0CFEFDFEFF80181918F01882371F7CF
:1006F000E0912101F0912201208531858AE0BF013E
:10070000F9010995892B11F0CFEFDFEFCE01DF91D1
:10071000CF911F910F910895ABE0B0E0E2E9F3E0D3
:100720000C94DD053C012B015A01FC011782168255
:10073000838181FD03C06FEF7FEFC6C19AE0892EF0
:100740001E010894211C311CF3012381F20123FDB9
:10075000859123FF81912F01882309F4B2C185324D
:1007600039F423FD859123FF81912F01853229F4EE
:1007700090E0B3010E941603E7CF982FFF24EE24E8
:100780009924FFE1FF15D0F09B3269F09C3228F4E8
:10079000903259F0933291F40EC09D3249F090336B
:1007A00069F441E024C052E0F52A84E0F82A28C028
:1007B00098E0F92A25C0E0E1FE2A22C0F7FC29C012
:1007C000892F80538A3070F4F6FE05C0989C902CD7
:1007D0001124980E15C0E89CE02C1124E80EF0E2DC
:1007E000FF2A0EC09E3229F4F6FC6BC140E4F42AC5
:1007F00007C09C3619F450E8F52A02C0983649F42F
:10080000F20123FD959123FF91912F01992309F086
:10081000B8CF892F8554833018F08052833038F454
:1008200044E050E0A40EB51E5FE359830FC0933639
:1008300031F0933779F0933509F056C020C0F501B7
:100840008081898342E050E0A40EB51E610101E081
:1008500010E012C0F501C080D180F6FC03C06FEF3C
:100860007FEF02C0692D70E042E050E0A40EB51E9B
:10087000C6010E9474058C015FE7F52214C0F501E2
:10088000C080D180F6FC03C06FEF7FEF02C0692DFE
:1008900070E042E050E0A40EB51EC6010E9469055A
:1008A0008C0150E8F52AF3FE07C01AC080E290E000
:1008B000B3010E941603EA948E2D90E008171907E1
:1008C000A8F30EC0F601F7FC8591F7FE81916F0148
:1008D00090E0B3010E941603E110EA940150104029
:1008E0000115110579F7EAC0943611F0993669F5CA
:1008F000F7FE08C0F501208131814281538184E0F7
:1009000090E00AC0F501808191819C01442737FD68
:100910004095542F82E090E0A80EB91E9FE6F92280
:1009200057FF09C050954095309521953F4F4F4F47
:100930005F4FE0E8FE2ACA01B901A1012AE030E0D8
:100940000E947F05D82ED21840C0953729F41F2D5C
:100950001F7E2AE030E01DC01F2D197F9F3661F0F9
:10096000903720F4983509F0ACC00FC0903739F0BB
:10097000983709F0A6C004C028E030E00AC0106132
:1009800014FD146020E130E004C014FD166020E185
:1009900032E017FF08C0F501608171818281938187
:1009A00044E050E008C0F50180819181BC0180E005
:1009B00090E042E050E0A40EB51EA1010E947F0528
:1009C000D82ED2188FE7F82EF122F6FE0BC05EEF7C
:1009D000F522D91438F4F4FE07C0F2FC05C08FEEFE
:1009E000F82202C01D2D01C0192DF4FE0DC0FE011C
:1009F000ED0DF11D8081803319F499EEF92208C0C4
:100A00001F5FF2FE05C003C08F2D867809F01F5FBF
:100A10000F2DF3FC14C0F0FE0FC01E1510F09D2C1E
:100A20000BC09D2C9E0C911A1E2D06C080E290E0FA
:100A3000B3010E9416031F5F1E15C0F304C01E15EC
:100A400010F4E11A01C0EE2404FF0FC080E390E02F
:100A5000B3010E94160302FF1DC001FD03C088E719
:100A600090E00EC088E590E00BC0802F867891F072
:100A700001FF02C08BE201C080E2F7FC8DE290E052
:100A8000B3010E94160306C080E390E0B3010E9408
:100A900016039A94D914C0F3DA94F101ED0DF11D07
:100AA000808190E0B3010E941603DD20A9F706C003
:100AB00080E290E0B3010E941603EA94EE20C1F7B1
:100AC00043CEF30166817781CB012B96E2E10C9452
:100AD000F905FC010590615070400110D8F7809530
:100AE00090958E0F9F1F0895FC01615070400190FA
:100AF0000110D8F7809590958E0F9F1F0895FA01E9
:100B0000AA27283051F1203181F1E8946F936E7F4C
:100B10006E5F7F4F8F4F9F4FAF4FB1E03ED0B4E03D
:100B20003CD0670F781F891F9A1FA11D680F791F7E
:100B30008A1F911DA11D6A0F711D811D911DA11D8F
:100B400020D009F468943F912AE0269F112430199F
:100B5000305D3193DEF6CF010895462F4770405D3A
:100B60004193B3E00FD0C9F7F6CF462F4F70405DE9
:100B70004A3318F0495D31FD4052419302D0A9F744
:100B8000EACFB4E0A6959795879577956795BA953E
:100B9000C9F700976105710508959B01AC010A2E04
:100BA00006945795479537952795BA95C9F7620FDB
:100BB000731F841F951FA01D08952F923F924F927F
:100BC0005F926F927F928F929F92AF92BF92CF92DD
:100BD000DF92EF92FF920F931F93CF93DF93CDB7E6
:100BE000DEB7CA1BDB0B0FB6F894DEBF0FBECDBF5E
:100BF00009942A88398848885F846E847D848C842F
:100C00009B84AA84B984C884DF80EE80FD800C8137
:100C10001B81AA81B981CE0FD11D0FB6F894DEBF1A
:0C0C20000FBECDBFED010895F894FFCF8A
:100C2C0043616C6C696E67206565323478785F77E8
:100C3C00726974655F706167652825642C20256472
:100C4C002C2025702900203D3E2025640A00657269
:100C5C00726F723A20545749207374617475732003
:100C6C002523780A0025233034783A2000776172E6
:100C7C006E696E673A2073686F7274207265616476
:100C8C002025640A002530327820005468652071D4
:100C9C007569636B2062726F776E20666F78206A5D
:100CAC00756D7073206F76657220746865206C6149
:100CBC007A7920646F672E0057726F7465202564F3
:100CCC002062797465732E0A00646F6E652E0000C5
:0E0CDC000000020000000051000000000000B7
:00000001FF
