:100000000C942A000C9436000C9434000C943400A8
:100010000C9434000C9434000C9434000C94340090
:100020000C9434000C9434000C9434000C94340080
:100030000C9434000C9434000C9434000C94340070
:100040000C9434000C9434000C9434000C94340060
:100050000C94340011241FBECFE5D4E0DEBFCDBF29
:100060000E945D000C9494000C9400001F920F926B
:100070000FB60F9211248F939F93EF93FF93AF9A34
:10008000AE9AAD9AAC9A86E099EFFC013197F1F700
:10009000FC013197F1F7FC013197F1F70197F1F786
:1000A000AF98AE98AD98AC98FF91EF919F918F91DA
:1000B0000F900FBE0F901F90189580EC8BBF8EE0B5
:1000C00085BF789426E039EF6FEF53E04CE0C9012B
:1000D0000197F1F7C9010197F1F7C9010197F1F70C
:1000E000C9010197F1F764BB1ABACE9B0DC055BB8D
:1000F000C9010197F1F7C9010197F1F7C90101970A
:10010000F1F7C9010197F1F7CE99E1CF45BBC901DC
:100110000197F1F7C9010197F1F7C9010197F1F7CB
:0C012000C9010197F1F7D3CFF894FFCF8D
:00000001FF
