:100000000C942A000C9434000C9434000C943400AA
:100010000C9434000C9434000C9434000C94340090
:100020000C9434000C9434000C9434000C94340080
:100030000C9434000C9434000C9434000C94340070
:100040000C9434000C9434000C9434000C94340060
:100050000C94340011241FBECFE5D4E0DEBFCDBF29
:100060000E9436000C944F000C9400008FEF84BB6C
:10007000E199FECF8EE290E09FBB8EBB81E18DBB0C
:100080000FB6F894E29AE19A0FBEE199FECF8EE2A4
:1000900090E09FBB8EBBE09A8DB385BB0895F8942A
:0200A000FFCF90
:00000001FF
