:1000000012C02CC02BC02AC029C04DC04CC026C075
:1000100025C024C023C022C021C020C01FC01EC0D4
:100020001DC01CC01BC011241FBECFE5D4E0DEBF25
:10003000CDBF10E0A0E6B0E0E6EEF8E002C005902B
:100040000D92A036B107D9F710E0A0E6B0E001C0EC
:100050001D92A13AB107E1F756D043C4D1CFDF9347
:10006000CF93CDB7DEB7EEE4F0E01082EDE4F0E040
:100070001082EBE4F0E01082EAE4F0E086E28083B4
:10008000E9E5F0E080E18083EEE4F0E08DE080835C
:10009000CF91DF910895DF93CF93CDB7DEB77894FA
:1000A000CF91DF9108951F920F920FB60F921124F6
:1000B0002F933F934F935F936F937F938F939F9370
:1000C000AF93BF93EF93FF93DF93CF93CDB7DEB79B
:1000D00080916100883218F0E2D0109261002DD337
:1000E000CF91DF91FF91EF91BF91AF919F918F9150
:1000F0007F916F915F914F913F912F910F900FBE24
:100100000F901F901895DF93CF93CDB7DEB7C3DF65
:10011000A6DF31D18AEA90E02EE730E0B90148E06D
:1001200059D18CE291E029E830E0B90143E052D1A5
:10013000E7E3F0E08FEF8083E4E3F0E08FEF80838C
:10014000E1E3F0E08FEF8083E8E3F0E081E080839B
:1001500008D2FECF0F931F93DF93CF93CDB7DEB7B7
:10016000E3E3F0E080818130F9F4209167008EE2D2
:1001700090E0622F29D0809165008295807F8093E6
:1001800068009091680080916600892B80936700D9
:1001900008E310E08EE290E03ED0F801808389E130
:1001A00060E0AFD00ED30EC0E2E3F0E080916000DB
:1001B000282F30E081E090E002C0880F991F2A9537
:1001C000E2F78083FED2CCCFDF93CF9300D00F92A3
:1001D000CDB7DEB79A8389836B83ECE3F0E080814F
:1001E000882F90E0827090700097B9F7EEE3F0E00E
:1001F00089819A8191838083EDE3F0E08B81808314
:100200000FB6F894E29AE19A0FBE0F900F900F90FC
:10021000CF91DF910895DF93CF9300D00F92CDB7A8
:10022000DEB79B838A83ECE3F0E08081882F90E047
:10023000827090700097B9F7EEE3F0E08A819B81BD
:1002400091838083E09A8DB3898389810F900F9089
:100250000F90CF91DF910895DF93CF93CDB7DEB7A5
:10026000E2E3F0E080916000282F30E081E090E050
:10027000022E02C0880F991F0A94E2F780838091B2
:1002800060008F5F8093600080916000883011F47F
:100290001092600082E360E034D093D2E1CFDF932C
:1002A000CF93CDB7DEB7809166008F5F80936600F5
:1002B000809166008C3310F1109266008091650089
:1002C0008F5F80936500809165008C33B8F08091DA
:1002D00064008F5F8093640080916400883170F0C7
:1002E000809162008F5F80936200809162008F37FF
:1002F00028F0809163008F5F80936300CF91DF913E
:1003000008950F931F93182F062F38D2112349F405
:10031000E0916A00F0916B0080818F78806180832A
:1003200026C0002311F4912F10C080917500912FE9
:10033000981BE0916A00F0916B008285980F01C0D4
:10034000910F1917E8F3992391F0E0916A00F09169
:100350006B0080818F7880628083E0916A00F091E9
:100360006B00928780916A0090916B00ABD00BD2AA
:100370001F910F91089510927400109273001092C3
:100380006B0010926A00109271001092700010922F
:100390007200109275001092760010927700109201
:1003A000780010926D0010926C001092A0001092D4
:1003B0009F000895F92FE82F603118F091E06FE069
:1003C00001C090E06F708081807F862B8083892FB1
:1003D00090E00895FF920F931F93CF93DF93082F20
:1003E000192FD72FC62FF42E80E06E37780730F103
:1003F0006F59704009F010F5C1D119828F2D8F7798
:10040000803108F08FE08F7098819078982B906100
:10041000892F8F7788831B830A83809175008A8751
:10042000F7FC08C09F709065988363E770E08C2F9D
:100430009D2F0CD0A8D180E090E002C082E090E037
:10044000DF91CF911F910F91FF900895CF93DF938C
:10045000B92FA82FD72FC62FE881F981309739F40B
:1004600099838883D92FC82F1D821C8226C08C9126
:100470008F7020E030E0482F50E00BC084819581E0
:100480002E2F3F2F009719F4E0E0F0E008C0F92F7D
:10049000E82F80818F7090E0481759077CF721156D
:1004A000310519F4B983A88304C0D32FC22FBD83AB
:1004B000AC83DB2FCA2FFD83EC8380E090E0DF91DB
:1004C000CF910895CF93DF93682F792FE09170003B
:1004D000F0917100309749F490937100809370000F
:1004E000D92FC82F1986188637C09285D72FC62FC7
:1004F0004A8520E030E00FC0A085B185109719F43F
:100500002E2F3F2F0EC0DB2FCA2F8A85980F2E2F3C
:100510003F2FFB2FEA2F491778F78285981BAE2FC4
:10052000BF2F491BF72FE62F4287109729F0DB2FAB
:10053000CA2F8A85841B8A872115310529F4709377
:1005400071006093700004C0F32FE22F7187608701
:10055000D72FC62FB987A88780E090E0DF91CF9191
:1005600008950F931F93CF93DF9308D110D1C3E762
:10057000D0E01DC0F0936B00E0936A008481958108
:100580009093A00080939F00158214826C2F7D2F82
:100590008E2F9F2F5BDF80919F009091A000892B71
:1005A00021F410926D0010926C00EDD0E7D0E09134
:1005B0009F00F091A0003097E9F688C081508093A9
:1005C0007200E0917000F0917100F0936B00E09385
:1005D0006A00309709F46FC08285815082876BC0B2
:1005E0008085918590937100809370008091750053
:1005F0008287E0916A00F0916B008081982F90775C
:10060000903219F48F78806544C0903719F5BBD0CB
:10061000E0916A00F0916B000280F381E02D099572
:10062000ADD0E0916A00F0916B009081892F8F70BE
:1006300011F49F779083E0916A00F0916B008081C4
:1006400087FF2FC08681828780916A0090916B001E
:1006500039DF27C0668177816115710511F18E2F11
:100660009F2FD1D0712F602F80916A0090916B00E5
:10067000CAD06C2F7D2F80916A0090916B00C3D0FF
:10068000E0916A00F0916B001782168280818F786A
:10069000806680836C2F7D2F80916A0090916B0023
:1006A000D5DE809170009091710090936B008093E3
:1006B0006A0069D063D0E0916A00F0916B003097D6
:1006C00049F08285882309F48BCF04C00FE910E03C
:1006D000C3E7D0E080917200882309F06FCFE091EA
:1006E0007300F0917400F0936B00E0936A00309710
:1006F000D9F08481958190937400809373008081F8
:100700009181958384833FD044D038D0E0916A00B2
:10071000F0916B0080818077803549F463E770E069
:100720008E2F9F2F93DE03C02ED027D027D02BD023
:10073000DF91CF911F910F91089580917500909155
:100740007600A0917700B09178000196A11DB11DAF
:100750008093750090937600A0937700B093780013
:10076000809172008F3F19F481E090E008958F5FCF
:100770008093720080E090E0089508958FB7F89418
:10078000809369000895809169008FBF0895A895AE
:100790000895CF93DF93CDB7DEB7C0936E00D093AB
:1007A0006F00E0916A00F0916B000180C019D109DF
:1007B0000FB6F894DEBF0FBECDBF0280F381E02DEF
:1007C0000994E0916A00F0916B009F918F91828370
:1007D000938380916E0090916F00A82FB92FCDB7B1
:1007E000DEB78C1B9D0B81830FB6F894BEBF0FBE86
:1007F000ADBFDF91CF910895AF91AF91A0916E0001
:10080000B0916F00F1CFCF93DF93282F392F462F70
:10081000572FB72FA62FED91FC91D92FC82FAC8160
:10082000BD8180E090E021C0E217F307C9F4009792
:1008300029F4F52FE42FB183A08304C0D92FC82F4A
:10084000BD83AC8340575040A9F4109799F0DB2F3B
:10085000CA2F8A85F32FE22F9285890F8A870AC0D3
:100860008E2F9F2F0480F581E02D3097E9F681E0EF
:1008700090E002C080E090E0DF91CF910895CF93A7
:10088000DF93D92FC82FE0917000F0917100A885F7
:10089000B98580E090E01EC0EC17FD07B1F4009729
:1008A00029F4B0937100A093700004C0F92FE82FD1
:1008B000B187A087109731F0FB2FEA2F82859A85A8
:1008C000890F828780E090E009C08E2F9F2F0084DF
:1008D000F185E02D309701F781E090E0DF91CF9135
:0608E0000895F894FFCF1B
:00000001FF
