:100000000C942A000C9449000C945B000C9447005B
:100010000C9447000C9447000C9447000C94470044
:100020000C9447000C9447000C9447000C94470034
:100030000C9447000C9447000C9447000C94470024
:100040000C9447000C9447000C9447000C94470014
:100050000C94470011241FBECFE5D4E0DEBFCDBF16
:1000600010E0A0E6B0E0ECEFF0E002C005900D92E9
:10007000A036B107D9F710E0A0E6B0E001C01D92AC
:10008000A036B107E1F70E946D000C947C000C943F
:1000900000001F920F920FB60F921124AF9AAE9AE2
:1000A000AD9AAC9AAF98AE98AD98AC980F900FBE41
:1000B0000F901F9018951F920F920FB60F92112458
:1000C000AF9AAE9AAD9AAC9AAF98AE98AD98AC98FC
:1000D0000F900FBE0F901F9018954FEF33E02CE05C
:1000E00090EC8EE044BB1ABACE9935BBCE9B25BBB3
:0C00F0009BBF85BF7894F6CFF894FFCF3B
:00000001FF
