:100000000C942A000C9447000C9447000C9449006F
:100010000C9447000C9447000C9447000C94470044
:100020000C9447000C9447000C9447000C94470034
:100030000C9447000C9447000C9447000C94470024
:100040000C9447000C9447000C9447000C94470014
:100050000C94470011241FBECFE5D4E0DEBFCDBF16
:1000600010E0A0E6B0E0E0E1F1E002C005900D9202
:10007000A036B107D9F710E0A0E6B0E001C01D92AC
:10008000A536B107E1F70E9479000C9486000C9424
:1000900000001F920F920FB60F9211248F939F931F
:1000A000809164008F5F8093640084E090E090937F
:1000B000610080936000809164008A3040F0AD9BC5
:1000C00002C015BA02C080E285BB109264009F9105
:1000D0008F910F900FBE0F901F9018951092640093
:1000E00080E889BF14BC8AEF83BD85B5876085BD74
:1000F000089515BA1092640080E889BF14BC8AEF95
:1001000083BD85B5876085BD7894FFCFF894FFCF18
:00000001FF
